:10000000EDC0000084C50000ABC50000D2C50000F3
:10001000F9C5000020C6000047C600006EC60000FB
:1000200095C60000BCC60000E3C600000AC7000079
:1000300031C7000058C700007FC70000A7C70000F5
:10004000CEC70000F5C700000C9441080C946A0864
:100050000C9493080C94BC080C94E5080C940E09BD
:100060000C9438090C9461090C948B090C94B50913
:100070000C94DF090C94090A0C94330A0C945C0A62
:100080000C94860A0C94B00A0C94D90A6E616E0026
:10009000696E660000407A10F35A00A0724E18098B
:1000A0000010A5D4E80000E87648170000E40B54DF
:1000B000020000CA9A3B000000E1F50500008096AE
:1000C0009800000040420F000000A08601000000E0
:1000D000102700000000E80300000000640000009A
:1000E00000000A00000000000100000000002C7663
:1000F000D888DC674F0823DFC1DFAE59E1B1B7967E
:10010000E5E3E453C63AE651997696E8E6C28426DA
:10011000EB898C9B62ED407C6FFCEFBC9C9F40F2B6
:10012000BAA56FA5F490055A2AF75C936B6CF96732
:100130006DC11BFCE0E40D47FEF520E6B500D0EDF7
:10014000902E0300943577050080841E080000205F
:100150004E0A000000C80C333333330F986E1283FD
:100160001141EF8D2114893BE65516CFFEE6DB18D1
:10017000D1844B381BF77C1D901DA4BBE424203296
:1001800084725E228100C9F124ECA1E53D276364FD
:10019000696E6F70737578585B6566674546470092
:1001A000616E006E66696E69747900CDCCCC3D0AD3
:1001B000D7233C17B7D13877CC2B329595E6241F3F
:1001C000B14F0A000020410000C84200401C4620F8
:1001D000BCBE4CCA1B0E5AAEC59D740011241FBE76
:1001E000CFEFD0E1DEBFCDBF12E0A0E0B1E0ECE5A3
:1001F000F5E400E00BBF02C007900D92A236B107F4
:10020000D9F723E0A2E6B2E001C01D92A233B20703
:10021000E1F70E9425120C94AC22089580910A0304
:1002200090910B03009711F00C94000B08958091AE
:100230001E0390911F03009711F00C94000B08957A
:1002400080910C0390910D03009711F00C94000B1A
:1002500008958091200390912103009711F00C9450
:10026000000B08950895089580910E0390910F0357
:10027000009711F00C94000B089580912203909147
:100280002303009711F00C94000B08958091100344
:1002900090911103009711F00C94000B0895809138
:1002A000240390912503009711F00C94000B0895FE
:1002B000089508958091FA029091FB02009711F041
:1002C0000C94000B08958091FC029091FD02009720
:1002D00011F00C94000B08958091FE029091FF02A2
:1002E000009711F00C94000B0895809100039091F9
:1002F0000103009711F00C94000B08958091020304
:1003000090910303009711F00C94000B08958091D5
:10031000040390910503009711F00C94000B0895CD
:100320008091060390910703009711F00C94000B45
:1003300008958091080390910903009711F00C949F
:10034000000B08958091120390911303009711F010
:100350000C94000B0895E0912201F0912301309755
:1003600009F0099580911C0390911D03009711F0ED
:100370000C94000B0895E0911201F0911301309755
:1003800009F009958091180390911903009711F0D5
:100390000C94000B0895E0911401F0911501309731
:1003A00009F009958091140390911503009711F0BD
:1003B0000C94000B0895E0910201F0910301309735
:1003C00009F0099580911A0390911B03009711F091
:1003D0000C94000B0895E0910401F0910501309711
:1003E00009F009958091160390911703009711F079
:1003F0000C94000B08958091260390912703009799
:1004000011F00C94000B08951092900081E189B9CD
:100410008AB188618AB9E5E9F0E0808186608083ED
:100420008AB1806C8AB908959B015D9BFECF8CB91F
:100430001092630290E080E08217930709F4089518
:1004400000000196F9CF9A01FC01680F792F711D08
:10045000E617F70719F41092630208955D9BFECF2B
:1004600081918CB990E080E08217930789F30000B6
:100470000196FACF1092980081E180939900EAE901
:10048000F0E0808188618083ADE9B0E08C91866086
:100490008C938081806C808308959B0190919B0058
:1004A00095FFFCCF80939C001092620290E080E068
:1004B0008217930709F4089500000196F9CF9A0175
:1004C000FC01680F792F711DE617F70719F41092D8
:1004D0006202089580919B0085FFFCCF81918093FB
:1004E0009C0090E080E08217930771F30000019672
:1004F000FACFAF92BF92CF92DF92EF92FF920F931B
:100500001F93CF93DF93CDB7DEB728970FB6F8943C
:10051000DEBF0FBECDBF7C015A0110E000E0C62E49
:10052000D12C0C151D051CF0109263022DC0AE01DC
:100530004F5F5F4F62E370E080E090E00E94AE0B9F
:100540005F9B0DC08CB1F701E00FF11F808390E03D
:1005500080E08A159B0549F50F5F1F4FE2CF898127
:100560009A81AB81BC818D839E83AF83B887BC01A8
:10057000CD010E94D80B882319F381E08093630298
:100580000E0D1F1DD8011C9228960FB6F894DEBFE1
:100590000FBECDBFDF91CF911F910F91FF90EF90D4
:1005A000DF90CF90BF90AF90089500000196D1CF1B
:1005B000AF92BF92CF92DF92EF92FF920F931F9371
:1005C000CF93DF93CDB7DEB728970FB6F894DEBF91
:1005D0000FBECDBF7C015A0110E000E0C62ED12C29
:1005E0000C151D051CF01092620230C0AE014F5F69
:1005F0005F4F62E370E080E090E00E94AE0B80917C
:100600009B0087FF0EC080919C00F701E00FF11F57
:10061000808390E080E08A159B0549F50F5F1F4FAE
:10062000DFCF89819A81AB81BC818D839E83AF832B
:10063000B887BC01CD010E94D80B882301F381E06B
:10064000809362020E0D1F1DD8011C9228960FB6D2
:10065000F894DEBF0FBECDBFDF91CF911F910F91F8
:10066000FF90EF90DF90CF90BF90AF900895000083
:100670000196D1CFEF92FF920F931F93CF93DF9309
:10068000CDB7DEB728970FB6F894DEBF0FBECDBF4B
:100690008C017B01AE014F5F5F4F62E370E080E051
:1006A00090E00E94AE0B5F9B0DC08CB1F80180837F
:1006B0001092630290E080E08E159F05B1F000007B
:1006C0000196FACF89819A81AB81BC818D839E830B
:1006D000AF83B887BC01CD010E94D80B882319F3E2
:1006E00081E080936302D8011C9228960FB6F8949B
:1006F000DEBF0FBECDBFDF91CF911F910F91FF9055
:10070000EF900895EF92FF920F931F93CF93DF9393
:10071000CDB7DEB728970FB6F894DEBF0FBECDBFBA
:100720008C017B01AE014F5F5F4F62E370E080E0C0
:1007300090E00E94AE0B80919B0087FF0EC08091DD
:100740009C00F80180831092620290E080E08E1598
:100750009F05B1F000000196FACF89819A81AB81A3
:10076000BC818D839E83AF83B887BC01CD010E947D
:10077000D80B882301F381E080936202D8011C9298
:1007800028960FB6F894DEBF0FBECDBFDF91CF9194
:100790001F910F91FF90EF90089587B3887F87BBDB
:1007A000BB9A80E48DB96F9A789408958FB90895B3
:1007B0008FB10895FF920F931F93CF93DF93CDB71F
:1007C000DEB728970FB6F894DEBF0FBECDBF182F47
:1007D000F92E062F080FAE014F5F5F4F62E370E006
:1007E00080E090E0BBD7779B09C0E12FFF2D8FB150
:1007F00081930E1799F01E2FFF2EEDCF89819A81DC
:10080000AB81BC818D839E83AF83B887BC01CD0152
:10081000CFD7882341F381E080933F0128960FB61C
:10082000F894DEBF0FBECDBFDF91CF911F910F9126
:10083000FF900895CF93DF93CDB7DEB728970FB61B
:10084000F894DEBF0FBECDBFAE014F5F5F4F62E3D6
:1008500070E080E090E082D7779B02C08FB111C03A
:1008600089819A81AB81BC818D839E83AF83B88758
:10087000BC01CD019DD7882379F381E080933F01AE
:1008800080E028960FB6F894DEBF0FBECDBFDF9193
:10089000CF910895FF920F931F93CF93DF93CDB71E
:1008A000DEB728970FB6F894DEBF0FBECDBF8C0120
:1008B000F62EF80EF80180810F5F1F4F8FB9AE0141
:1008C0004F5F5F4F62E370E080E090E047D7779B37
:1008D00003C0F012EFCF10C089819A81AB81BC8137
:1008E0008D839E83AF83B887BC01CD0161D78823F8
:1008F00071F381E080933F0128960FB6F894DEBF34
:100900000FBECDBFDF91CF911F910F91FF90089542
:10091000CF93DF93CDB7DEB728970FB6F894DEBF3D
:100920000FBECDBF8FB9AE014F5F5F4F62E370E086
:1009300080E090E013D7779910C089819A81AB81CC
:10094000BC818D839E83AF83B887BC01CD0130D736
:10095000882389F381E080933F0128960FB6F894AD
:10096000DEBF0FBECDBFDF91CF910895DF92EF9232
:10097000FF920F931F93CF93DF93CDB7DEB72897E6
:100980000FB6F894DEBF0FBECDBF7B018C01D42E15
:10099000D80EF80180810F5F1F4F8FB9AE014F5FF6
:1009A0005F4F62E370E080E090E0D8D6779B07C0AD
:1009B000F7018FB18193D01691F07F01EACF898141
:1009C0009A81AB81BC818D839E83AF83B887BC0144
:1009D000CD01EED6882351F381E080933F01289624
:1009E0000FB6F894DEBF0FBECDBFDF91CF911F9140
:1009F0000F91FF90EF90DF900895CF93DF93CDB7E5
:100A0000DEB728970FB6F894DEBF0FBECDBF8FB903
:100A1000AE014F5F5F4F62E370E080E090E09ED6F2
:100A2000779B02C08FB111C089819A81AB81BC8153
:100A30008D839E83AF83B887BC01CD01B9D688234F
:100A400079F381E080933F0180E028960FB6F89417
:100A5000DEBF0FBECDBFDF91CF9108951ED787B304
:100A6000876087BBBB98E1E6F0E08081806180838E
:100A70008DB183658DB90895883000F18A30C1F059
:100A800028F4883031F0893039F008958B3099F0AE
:100A90000895BC9AC49A089598B387B321E030E0D2
:100AA00001C0220F9A95EAF7822B87BBC59A089559
:100AB000BE9AC69A0895BF9AC79A08958091620017
:100AC00080618093620008958830B8F08A3079F0B0
:100AD00028F4883031F0893039F008958B3051F0A6
:100AE0000895BC9AC4980895C59AC5980895C69A61
:100AF000C6980895C79AC7980895C4D68091620091
:100B00008F7E80936200089508950895D3CB1F923D
:100B10000F920FB60F9211240BB60F922F933F93A3
:100B20004F935F936F937F938F939F93AF93BF93F5
:100B3000EF93FF93EBDFFF91EF91BF91AF919F9107
:100B40008F917F916F915F914F913F912F910F9076
:100B50000BBE0F900FBE0F901F9018950895B3CB4A
:100B60001F920F920FB60F9211240BB60F922F9374
:100B70003F934F935F936F937F938F939F93AF9325
:100B8000BF93EF93FF93EBDFFF91EF91BF91AF9195
:100B90009F918F917F916F915F914F913F912F9195
:100BA0000F900BBE0F900FBE0F901F9018950895D9
:100BB00093CB1F920F920FB60F9211240BB60F9288
:100BC0002F933F934F935F936F937F938F939F9355
:100BD000AF93BF93EF93FF93EBDFFF91EF91BF9143
:100BE000AF919F918F917F916F915F914F913F91C5
:100BF0002F910F900BBE0F900FBE0F901F90189566
:100C0000089573CB1F920F920FB60F9211240BB65B
:100C10000F922F933F934F935F936F937F938F9395
:100C20009F93AF93BF93EF93FF93EBDFFF91EF9110
:100C3000BF91AF919F918F917F916F915F914F91F4
:100C40003F912F910F900BBE0F900FBE0F901F90F2
:100C50001895089553CB1F920F920FB60F9211243F
:100C60000BB60F922F933F934F935F936F937F93A6
:100C70008F939F93AF93BF93EF93FF93EBDFFF911E
:100C8000EF91BF91AF919F918F917F916F915F9104
:100C90004F913F912F910F900BBE0F900FBE0F9071
:100CA0001F901895089533CB1F920F920FB60F9295
:100CB00011240BB60F922F933F934F935F936F9333
:100CC0007F938F939F93AF93BF93EF93FF93EBDF4C
:100CD000FF91EF91BF91AF919F918F917F916F9114
:100CE0005F914F913F912F910F900BBE0F900FBED0
:100CF0000F901F901895089513CB1F920F920FB667
:100D00000F9211240BB60F922F933F934F935F9343
:100D10006F937F938F939F93AF93BF93EF93FF93C3
:100D2000EBDFFF91EF91BF91AF919F918F917F91F9
:100D30006F915F914F913F912F910F900BBE0F904C
:100D40000FBE0F901F9018950895F3CA1F920F922F
:100D50000FB60F9211240BB60F922F933F934F9320
:100D60005F936F937F938F939F93AF93BF93EF9313
:100D7000FF93EBDFFF91EF91BF91AF919F918F9127
:100D80007F916F915F914F913F912F910F900BBE8B
:100D90000F900FBE0F901F90189508956ECA1F9266
:100DA0000F920FB60F9211240BB60F922F933F9311
:100DB0004F935F936F937F938F939F93AF93BF9363
:100DC000EF93FF93EBDFFF91EF91BF91AF919F9175
:100DD0008F917F916F915F914F913F912F910F90E4
:100DE0000BBE0F900FBE0F901F90189508953CCA30
:100DF0001F920F920FB60F9211240BB60F922F93E2
:100E00003F934F935F936F937F938F939F93AF9392
:100E1000BF93EF93FF93EBDFFF91EF91BF91AF9102
:100E20009F918F917F916F915F914F913F912F9102
:100E30000F900BBE0F900FBE0F901F901895089546
:100E4000FECF1F920F920FB60F9211240BB60F9286
:100E50002F933F934F935F936F937F938F939F93C2
:100E6000AF93BF93EF93FF93EBDFFF91EF91BF91B0
:100E7000AF919F918F917F916F915F914F913F9132
:100E80002F910F900BBE0F900FBE0F901F901895D3
:100E90000895DFC91F920F920FB60F9211240BB65F
:100EA0000F922F933F934F935F936F937F938F9303
:100EB0009F93AF93BF93EF93FF93EBDFFF91EF917E
:100EC000BF91AF919F918F917F916F915F914F9162
:100ED0003F912F910F900BBE0F900FBE0F901F9060
:100EE00018950895BFC91F920F920FB60F92112443
:100EF0000BB60F922F933F934F935F936F937F9314
:100F00008F939F93AF93BF93EF93FF93EBDFFF918B
:100F1000EF91BF91AF919F918F917F916F915F9171
:100F20004F913F912F910F900BBE0F900FBE0F90DE
:100F30001F901895089584C91F920F920FB60F92B3
:100F400011240BB60F922F933F934F935F936F93A0
:100F50007F938F939F93AF93BF93EF93FF930E94E1
:100F6000E310FF91EF91BF91AF919F918F917F918E
:100F70006F915F914F913F912F910F900BBE0F900A
:100F80000FBE0F901F901895089551C91F920F9290
:100F90000FB60F9211240BB60F922F933F934F93DE
:100FA0005F936F937F938F939F93AF93BF93EF93D1
:100FB000FF93EBDFFF91EF91BF91AF919F918F91E5
:100FC0007F916F915F914F913F912F910F900BBE49
:100FD0000F900FBE0F901F90189508951FC91F9274
:100FE0000F920FB60F9211240BB60F922F933F93CF
:100FF0004F935F936F937F938F939F93AF93BF9321
:10100000EF93FF93EBDFFF91EF91BF91AF919F9132
:101010008F917F916F915F914F913F912F910F90A1
:101020000BBE0F900FBE0F901F901895089593C997
:101030001F920F920FB60F9211240BB60F922F939F
:101040003F934F935F936F937F938F939F93AF9350
:10105000BF93EF93FF93EBDFFF91EF91BF91AF91C0
:101060009F918F917F916F915F914F913F912F91C0
:101070000F900BBE0F900FBE0F901F901895089504
:101080008AC91F920F920FB60F9211240BB60F92BE
:101090002F933F934F935F936F937F938F939F9380
:1010A000AF93BF93EF93FF93EBDFFF91EF91BF916E
:1010B000AF919F918F917F916F915F914F913F91F0
:1010C0002F910F900BBE0F900FBE0F901F90189591
:1010D0000895FECF1F920F920FB60F9211240BB6F8
:1010E0000F922F933F934F935F936F937F938F93C1
:1010F0009F93AF93BF93EF93FF93EBDFFF91EF913C
:10110000BF91AF919F918F917F916F915F914F911F
:101110003F912F910F900BBE0F900FBE0F901F901D
:101120001895089528C91F920F920FB60F92112497
:101130000BB60F922F933F934F935F936F937F93D1
:101140008F939F93AF93BF93EF93FF93EBDFFF9149
:10115000EF91BF91AF919F918F917F916F915F912F
:101160004F913F912F910F900BBE0F900FBE0F909C
:101170001F90189508953FC91F920F920FB60F92B6
:1011800011240BB60F922F933F934F935F936F935E
:101190007F938F939F93AF93BF93EF93FF93EBDF77
:1011A000FF91EF91BF91AF919F918F917F916F913F
:1011B0005F914F913F912F910F900BBE0F900FBEFB
:1011C0000F901F9018950895FECF1F920F920FB6A3
:1011D0000F9211240BB60F922F933F934F935F936F
:1011E0006F937F938F939F93AF93BF93EF93FF93EF
:1011F000EBDFFF91EF91BF91AF919F918F917F9125
:101200006F915F914F913F912F910F900BBE0F9077
:101210000FBE0F901F9018950895FECF1F920F924A
:101220000FB60F9211240BB60F922F933F934F934B
:101230005F936F937F938F939F93AF93BF93EF933E
:10124000FF93EBDFFF91EF91BF91AF919F918F9152
:101250007F916F915F914F913F912F910F900BBEB6
:101260000F900FBE0F901F90189508950C943301A6
:101270001F920F920FB60F9211240BB60F922F935D
:101280003F934F935F936F937F938F939F93AF930E
:10129000BF93EF93FF93EADFFF91EF91BF91AF917F
:1012A0009F918F917F916F915F914F913F912F917E
:1012B0000F900BBE0F900FBE0F901F9018950895C2
:1012C000FECF1F920F920FB60F9211240BB60F9202
:1012D0002F933F934F935F936F937F938F939F933E
:1012E000AF93BF93EF93FF93EBDFFF91EF91BF912C
:1012F000AF919F918F917F916F915F914F913F91AE
:101300002F910F900BBE0F900FBE0F901F9018954E
:1013100008950C944F011F920F920FB60F92112453
:101320000BB60F922F933F934F935F936F937F93DF
:101330008F939F93AF93BF93EF93FF93EADFFF9158
:10134000EF91BF91AF919F918F917F916F915F913D
:101350004F913F912F910F900BBE0F900FBE0F90AA
:101360001F90189508950C9458011F920F920FB674
:101370000F9211240BB60F922F933F934F935F93CD
:101380006F937F938F939F93AF93BF93EF93FF934D
:10139000EADFFF91EF91BF91AF919F918F917F9184
:1013A0006F915F914F913F912F910F900BBE0F90D6
:1013B0000FBE0F901F90189508950C9459011F921D
:1013C0000F920FB60F9211240BB60F922F933F93EB
:1013D0004F935F936F937F938F939F93AF93BF933D
:1013E000EF93FF93EADFFF91EF91BF91AF919F9150
:1013F0008F917F916F915F914F913F912F910F90BE
:101400000BBE0F900FBE0F901F90189508950C946F
:1014100046011F920F920FB60F9211240BB60F9236
:101420002F933F934F935F936F937F938F939F93EC
:10143000AF93BF93EF93FF93EADFFF91EF91BF91DB
:10144000AF919F918F917F916F915F914F913F915C
:101450002F910F900BBE0F900FBE0F901F901895FD
:1014600008950C94EB011F920F920FB60F92112466
:101470000BB60F922F933F934F935F936F937F938E
:101480008F939F93AF93BF93EF93FF93EADFFF9107
:10149000EF91BF91AF919F918F917F916F915F91EC
:1014A0004F913F912F910F900BBE0F900FBE0F9059
:1014B0001F9018950895FECF1F920F920FB60F92AE
:1014C00011240BB60F922F933F934F935F936F931B
:1014D0007F938F939F93AF93BF93EF93FF93EBDF34
:1014E000FF91EF91BF91AF919F918F917F916F91FC
:1014F0005F914F913F912F910F900BBE0F900FBEB8
:101500000F901F90189508950C94DB011F920F9275
:101510000FB60F9211240BB60F922F933F934F9358
:101520005F936F937F938F939F93AF93BF93EF934B
:10153000FF93EADFFF91EF91BF91AF919F918F9160
:101540007F916F915F914F913F912F910F900BBEC3
:101550000F900FBE0F901F90189508950C94A20144
:101560001F920F920FB60F9211240BB60F922F936A
:101570003F934F935F936F937F938F939F93AF931B
:10158000BF93EF93FF93EADFFF91EF91BF91AF918C
:101590009F918F917F916F915F914F913F912F918B
:1015A0000F900BBE0F900FBE0F901F9018950895CF
:1015B000FECF1F920F920FB60F9211240BB60F920F
:1015C0002F933F934F935F936F937F938F939F934B
:1015D000AF93BF93EF93FF93EBDFFF91EF91BF9139
:1015E000AF919F918F917F916F915F914F913F91BB
:1015F0002F910F900BBE0F900FBE0F901F9018955C
:101600000F931F93CF93DF93EC0110E005E0892B3C
:10161000B9F4DF91CF911F910F910895AA81BB81F9
:10162000109FA00DB11D11248C91882341F01196BB
:10163000ED91FC91129713968D919C9109951F5FE6
:101640008981181758F3E5CFCF93DF93FC0181818F
:1016500090818917C0F43097B1F0A281B38195E0F1
:10166000899FA00DB11D11241C9212967C936E933C
:10167000119714965C934E93139791E0980F918372
:10168000DF91CF9108958FEFFBCFFC01892B71F093
:101690008181681748F40280F381E02D85E0689F1E
:1016A000E00DF11D1124408380E008958FEF08952F
:1016B000109228031092290310922A0310922B03F0
:1016C0000895CF93DF9300D000D0CDB7DEB78091DF
:1016D000280390912903A0912A03B0912B03BC0108
:1016E000CD010F900F900F900F90DF91CF91089543
:1016F000CF92DF92EF92FF92CF93DF9300D000D092
:1017000000D0CDB7DEB769837A838B839C835E83F9
:101710004D83C0902803D0902903E0902A03F090D5
:101720002B0328EE33E040E050E00E941F20C20E61
:10173000D31EE41EF51EED81FE81C082D182E282BD
:10174000F38226960FB6F894DEBF0FBECDBFDF91B1
:10175000CF91FF90EF90DF90CF9008950F931F935C
:10176000CF93DF9300D000D0CDB7DEB769837A8303
:101770008B839C838091280390912903A0912A0355
:10178000B0912B0309811A812B813C81800F911F1D
:10179000A21FB31FFA0180839183A283B3830F90AA
:1017A0000F900F900F90DF91CF911F910F9108959F
:1017B0000F931F93CF93DF9300D000D0CDB7DEB748
:1017C00069837A838B839C834091280350912903FA
:1017D00060912A0370912B0381E009811A812B818A
:1017E0003C81041715072607370708F080E00F90A3
:1017F0000F900F900F90DF91CF911F910F9108954F
:10180000CF93DF9300D000D0CDB7DEB769837A8362
:101810008B839C838091280390912903A0912A03B4
:10182000B0912B0329813A814B815C81820F931FF8
:10183000A41FB51F409128035091290360912A03EA
:1018400070912B03481759076A077B0798F30F908D
:101850000F900F900F90DF91CF9108958091280302
:1018600090912903A0912A03B0912B030196A11D09
:10187000B11D8093280390932903A0932A03B0936A
:101880002B030895883040F428B32F7130E2839FF2
:10189000C0011124822B88BB089587B3806E87BB5B
:1018A000089587B3807F876087BBE1E6F0E08081A1
:1018B0008061808383E58DB981E08EB908958FB909
:1018C000779BFECF8FB108951092980081E18093AD
:1018D0009900EAE9F0E0808188618083EDE9F0E039
:1018E000808186608083089590919B0095FFFCCF56
:1018F00080939C00089580919B0087FFFCCF80918E
:101900009C000895EF92FF920F931F93FC010B969A
:10191000908B8787029796878587528B418B348B74
:10192000238BF08EE78A168B058B728F618F8FEF7A
:101930009FE3908787831F910F91FF90EF90089509
:101940008F929F92AF92BF92CF92DF92FF920F93AE
:101950001F93CF93DF938C01DC0113968D909C90A5
:101960001497092C000CAA08BB08F12C7AC0D801E6
:101970005596ED91FC915697CF2DD0E0CC0FDD1F01
:10198000EC0FFD1F208131815B96ED91FC915C97FE
:10199000A081B1810E944720DC01CB01072E7EE0AF
:1019A000B695A795979587957A95D1F7702DF801FB
:1019B0002789308DF901EC0FFD1F40815181480FBF
:1019C000591F4936F1E05F07C8F09A01A3E8BDE26C
:1019D0000E9447200024880F991F001C880F991F20
:1019E000001C892F902D68E671E0869F9001879FEB
:1019F000300D969F300D1124421B530BD801539686
:101A0000CD90DC905497CC0EDD1EBA0159968D9185
:101A10009C915A970E948A15F60191838083D80180
:101A20005396ED91FC915497EC0FFD1FA081B1816D
:101A3000F80181899289C80FD91F288139810E94B4
:101A40005620DC01CB01072E7EE0B595A795979532
:101A500087957A95D1F7702D880E991EAA1EBB1E08
:101A6000F394D80111968C911197F81608F47FCF52
:101A7000689414F8B594A794979487941694D1F722
:101A80005B96ED91FC915C9780819181880E991E07
:101A900017968D919C911897882299221A969C925C
:101AA0008E92199780E0DF91CF911F910F91FF9057
:101AB000DF90CF90BF90AF909F908F90089581B3AB
:101AC000806281BB88B3806288BB87B3807F876078
:101AD00087BB88B3806388BB87B3806387BB8EB1C5
:101AE00081608EB98DB18C7F8DB98DB184608DB9D7
:101AF0008DB1877F8DB98DB180618DB98DB18F7DAD
:101B00008DB98DB180648DB98DB18F778DB9089500
:101B10001092610087B1807E87B987B18F7D87B9C8
:101B200087B18F7387B986B1887F856086B986B1A2
:101B3000877F86B986B18F7D86B986B1806886B980
:101B400086B1806486B9089587B3806E87BB8FB5F0
:101B5000806C8FBD8FB580638FBD8FB58C608FBD5E
:101B60008FB58C7F8FBD8EB5877E80618EBD8EB523
:101B7000887F81608EBD87B7846087BF80E094E0F6
:101B800097BD86BD80E290E09BBD8ABD80E490E079
:101B900099BD88BD80E890E09093790080937800AB
:101BA000089512BA81B3806F81BB08950E94A61672
:101BB00086DFAEDFC9DFF5CF08959C01265F3F4F7A
:101BC000FC01358724870895CF92DF92EF92FF9230
:101BD0000F931F93CF93DF93EC010A8D1B8DD801D8
:101BE0008D919C91092E000CAA0BBB0B4E855F8535
:101BF00068897989840F951FA61FB71F8E879F87D5
:101C0000A88BB98B4A895B896C897D8948175907EC
:101C10006A077B072CF44E875F87688B798B10C02F
:101C200070956095509541955F4F6F4F7F4F84172A
:101C30009507A607B70724F44E875F87688B798BD3
:101C40006E857F8588899989CE88DF88E88CF98CB4
:101C50000E945217A70196010E94DE170E941F17CB
:101C60009B01AC016E877F87888B998BAC81BD818E
:101C70000E945C204F815885D801ED91FC91E49F32
:101C80009001E59F300DF49F300D1124DC01CB0154
:101C9000820F931FA11DB11D0E8004C0B595A7959D
:101CA000979587950A94D2F79C01992324F42227CB
:101CB0003327281B390B888199818217930730F0CD
:101CC0008A819B812817390708F0C9019B878A8779
:101CD00080E0DF91CF911F910F91FF90EF90DF9007
:101CE000CF900895FC01338B228B77876687518BC9
:101CF000408B08952F923F924F925F926F927F9206
:101D00008F929F92AF92BF92CF92DF92EF92FF920B
:101D10000F931F93CF93DF93CDB7DEB727970FB6FF
:101D2000F894DEBF0FBECDBF9F838E83DC011C966F
:101D3000ED91FC911D9780819181A0E0B0E08C0134
:101D40009D01000F111F221F331F000F111F221FA3
:101D5000331FB901A801440F551F661F771F440F99
:101D6000551F661F771F400F511F621F731F8A0187
:101D70009B01080F191F2A1F3B1FC901B801AE8123
:101D8000BF8112961C91C12ED12CE12CF12CA70100
:101D90009601012E1EE0220F331F441F551F1A9576
:101DA000D1F7102D0E941F206B017C010B2EBDE08E
:101DB000F594E794D794C794BA95D1F7B02DCD8216
:101DC000222423942C0C422D50E0212F30E0220FAE
:101DD000331F4217530709F4212C2C2D30E0322FEA
:101DE00022273295330F307E6B017C01C21AD30A51
:101DF000E108F10826013701B0E25B1A61087108B9
:101E0000A7019601C301B2010E94FC1F9C01552746
:101E100037FD5095452FEE81FF81A681B7810E9445
:101E20006620072F182F292F332727FD3A9509837E
:101E30001A832B833C834601570110E1911AA108B4
:101E4000B108A3019201C501B4010E94FC1F2B013E
:101E50003C01032E3CE075946794579447943A955F
:101E6000D1F7302D09811A812B813C81401A510A0A
:101E7000620A730AA7019601C501B4010E94FC1F02
:101E80004B015C01072E7CE0B594A794979487944E
:101E90007A95D1F7702D9501840189819A81AB8162
:101EA000BC81081B190B2A0B3B0B09831A832B835C
:101EB0003C830284F385E02D80819181312C78C0B0
:101EC000AE81BF811E962D913C911F97E32DF0E0CE
:101ED000CF01880F991F5901A80EB91E1A968D912E
:101EE0009C911B97DC018D909C90AE81BF81509698
:101EF0000D911C915197BD818B2F90E09C01220F79
:101F0000331FD901A80FB91FAE0FBF1FAA0FBB1FE8
:101F1000A00FB11F0D90BC91A02DA30192010E94B2
:101F200066206B017C010B2EBDE0F694E794D794FC
:101F3000C794BA95D1F7B02D822D90E09C01220F65
:101F4000331F820F931F8E0F9F1F880F991FF80159
:101F5000E80FF91FA081B18129813A814B815C8111
:101F60000E946620DC01CB01072E7DE0B695A79587
:101F7000979587957A95D1F7702DA7019601280F2F
:101F8000391F4A1F5B1FD4010E945C20DC01CB017A
:101F9000072E7AE0B695A795979587957A95D1F70C
:101FA000702DBC01605F7F4FF501718360833394B6
:101FB000AE81BF8112968C91381608F481CF80E0F3
:101FC00027960FB6F894DEBF0FBECDBFDF91CF913D
:101FD0001F910F91FF90EF90DF90CF90BF90AF9047
:101FE0009F908F907F906F905F904F903F902F9039
:101FF0000895FC014096918F808F0296938F828F77
:10200000138A128A84E799E1958B848B0895CF9285
:10201000DF92EF92FF92CF93DF93FC01C68DD78DB5
:102020004881598124813581A289B3890E94562033
:10203000DC01CB01068004C0B595A79597958795DF
:102040000A94D2F7BA01680F791F738B628B848967
:102050009589861797071CF4938B828B08C09195FE
:10206000819591096817790714F4938B828B2085E9
:102070003185A289B3890E9441206B017C010284D1
:1020800004C0F594E794D794C7940A94D2F72485B2
:102090003585A881B9810E944120DC01CB010684ED
:1020A00004C0B595A795979587950A94D2F7C80E61
:1020B000D91E808191818C159D053CF0919581956B
:1020C0009109C816D9060CF0C601978B868BA48D92
:1020D000B58D2D913C91820F931F918B808B80E069
:1020E000DF91CF91FF90EF90DF90CF90089582B372
:1020F0008F7D82BB80E090E001C001968230910527
:10210000E0F38FE38FB9779BFECF8FB190E0982FEC
:1021100088272FEF2FB9779BFECF2FB1822B9F738C
:1021200020E030E002C02F5F3F4F22303105D8F36E
:1021300022B3206222BB20E030E002C02F5F3F4F7D
:1021400024303105D8F3089592B3906492BB9091F6
:10215000C802981302C061E001C064E040E050E0B2
:102160000DC097B1907E282F2F71922B97B996B101
:10217000906496B9349BFECF4F5F5F4F262F30E0BF
:102180004217530774F38093C80292B382B38074EA
:10219000892782BB84B195B1089588B3806188BBDB
:1021A00087B38F7E87BB089588B38F7E88BB87B344
:1021B000806187BB1BBC1ABC19BC18BC109279008B
:1021C0001092780008958091D6029091D7020196DE
:1021D0009093D7028093D6028091D6029091D70235
:1021E000409781F48091D4029091D502019690930A
:1021F000D5028093D4021092D7021092D60281E0C9
:102200008093D3020895CF9382B3806182BB1092F2
:10221000D30282B38F7D82BB80E090E001C0019643
:1022200082309105E0F38FE38FB9779BFECF2FB11A
:1022300030E0322F22278FEF8FB9779BFECF8FB1FF
:10224000282B3F7380E090E001C001968230910519
:10225000E0F382B3806282BB80E090E001C001962F
:1022600084309105E0F33093CA022093C902C0E0A4
:1022700035C082B38F7D82BB80E090E001C00196C3
:1022800082309105E0F38FE38FB9779BFECF2FB1BA
:1022900030E0322F22278FEF8FB9779BFECF8FB19F
:1022A000282B3F7380E090E001C0019682309105B9
:1022B000E0F382B3806282BB80E090E001C00196CF
:1022C00084309105E0F33093CA022093C90282ED75
:1022D00091E05ED386EE91E09FD3CF5FC43048F2A9
:1022E00082B3806482BB8091C802811102C041E048
:1022F00001C044E020E030E00AC087B1807E87B9A9
:1023000086B1806486B9349BFECF2F5F3F4F842F08
:1023100090E0281739078CF31092C80292B382B369
:102320008074892782BB84B195B192509093CD027D
:102330008093CC0282B3806482BB8091C8028130DA
:1023400011F441E001C044E020E030E00BC087B16F
:10235000807E816087B986B1806486B9349BFECF68
:102360002F5F3F4F842F90E02817390784F381E0D7
:102370008093C80292B382B38074892782BB84B1F0
:1023800095B19250ECECF2E093838283608171818D
:1023900022273327261B370B281B390B3583248331
:1023A000AB01772324F444275527461B570B4F3F97
:1023B0005140A4F4AC01992324F444275527481B29
:1023C000590B4F3F514054F4C901992324F48827F5
:1023D0009927821B930B8F3F914024F081E08093DB
:1023E000CB0231C084E692E0ABDA80EA91E03DD2E4
:1023F00080E491E0E9DB80E891E009DE8DEA92E09B
:1024000079DC26B537B5E2ECF2E080819181B90143
:102410000E940B209BBD8ABD82819381B9010E94DD
:102420000B2099BD88BD84819581B9010E940B2044
:10243000909379008093780082B38F7E82BB81E095
:102440008093D20280E0CF910895CF92DF92EF92F5
:10245000FF920F931F93CF93DF93A8DB89EC92E059
:102460009093E1018093E0018AED91E09093F60171
:102470008093F501C4E6D2E08FEE91E09C8F8B8FC4
:102480008DE692E09093CF018093CE01E0E8F1E0F9
:10249000958F848F84EC91E0978F868F90935B016A
:1024A00080935A010F2EFDEACF2EF2E0DF2EF02DA1
:1024B0008AE491E0F6019387828780E991E095872D
:1024C000848715DE9093CA028093C90210DE909330
:1024D000CA028093C90262EE72E082ED91E03DD2C1
:1024E00082ED91E055D243EE52E064EE72E086EE6A
:1024F00091E0E5D284EF92E0FFD280E891E079DDCF
:1025000080E491E05ADB0F2EF5E8EF2EF2E0FF2E8B
:10251000F02D0FE812E029E932E043EA52E064EFDF
:1025200072E0CE01EFD982E18E83ED89FE8988E6E3
:1025300091E091838083ED89FE8980ED92E0938321
:102540008283ED89FE8988E394E095838483ED8915
:10255000FE8980EA95E097838683ED89FE8988E08D
:1025600097E091878087EF89F88D87E391E09183E9
:102570008083EF89F88D8BE990E093838283EF89E4
:10258000F88D86E990E095838483EF89F88D83E662
:1025900090E097838683EF89F88D8AE291E09187B6
:1025A000808795E09D832AEB3EE93C832B83E98974
:1025B000FA8922EB31E031832083E989FA8924EA20
:1025C00030E033832283E989FA892FE230E03583D2
:1025D0002483E989FA892EE830E037832683E98964
:1025E000FA8924E430E03187208781E08A83998367
:1025F000F601818383E0828384E583838EE0848394
:1026000082E0858389E792E19783868321EC32E03B
:102610004CE551E062EC72E0C60164DBCE0190D97A
:1026200069857A8548ED52E080EA91E00CD182E03C
:102630008BDDC0E0D0E0C12CD12C760132C082B35A
:10264000806482BB8091C802823011F441E001C0F5
:1026500044E020E030E00BC087B1807E826087B923
:1026600086B1806486B9349BFECF2F5F3F4F842FA5
:1026700090E02817390784F382E08093C80292B370
:1026800082B38074892782BB64B175B180E090E029
:1026900007D49B01AC01C701B6016DD36B017C016E
:1026A0002196C031D1055CF220E030E040EA50E4F0
:1026B000C701B60183D49B01AC015DD320E030E0BB
:1026C00040E858E37BD49F938F937F936F9389E087
:1026D00092E09F938F930E94EF21F9E929E581E031
:1026E000F15020408040E1F70000789456DD0F90D3
:1026F0000F900F900F900F900F90C0E0D0E006C0A9
:102700001092C3011092C2017EDD2196C038D1051E
:10271000BCF383EC90E09093B6018093B5011092E6
:10272000D7021092D602C0906D02D0906E02C0E027
:10273000D0E08091D302813001F5E0906D02F090FD
:102740006E02E701CC19DD09C13090E2D90714F01F
:10275000D05405C0C115E0EEDE070CF4D05C8091CA
:10276000D4029091D502893B9B4008F04FC04BDDCD
:1027700081E08093D2026701DCCF8091D202813068
:10278000C1F68091D4029091D502DF93CF93E0EA15
:10279000F1E086898F9385898F9386E392E09F93FA
:1027A0008F930E94EF21ECECF2E085818F9384817E
:1027B0008F9383818F9382818F9381818F93808187
:1027C0008F9382E392E09F938F930E94EF21E2EC3C
:1027D000F2E085818F9384818F9383818F938281AF
:1027E0008F9381818F9380818F938FE392E09F936A
:1027F0008F930E94EF211092D202EDB7FEB776962A
:102800000FB6F894FEBF0FBEEDBF93CFF894CCDCAB
:102810008091CB02882319F0813031F009C08CE41B
:1028200092E00E94022204C084E592E00E9402220B
:1028300080E090E0DF91CF911F910F91FF90EF909A
:10284000DF90CF900895FC0151AB40AB4E9695A719
:1028500084A7069697A386A3778F668F73A362A338
:10286000108E178A168A158A0895CF93DF93FC017C
:10287000148E138E258936898789908D820F931F38
:1028800022A133A1820F931F108E178A9F7393A3E7
:1028900082A3A68DB78DAC014A1B5B0B528F418F73
:1028A000413020E2520724F05054528F418F07C02C
:1028B000411520EE52071CF4505C528F418F418D20
:1028C000528D23893489BA01552324F4662777274A
:1028D000641B750B2617370708F4B90155231CF440
:1028E000CFEFDFEF02C0C1E0D0E0C69F9001C79FED
:1028F000300DD69F300D1124421B530B528F418F48
:102900002A0F3B1F3F73378F268FAC01421B530B9F
:102910009A0121573E4F2F31334010F4978F868F05
:10292000868D978DA6A5B7A52D913C91821B930B03
:1029300095A384A3813040E2940724F0905495A39A
:1029400084A307C0811550EE95071CF4905C95A3F5
:1029500084A380E0DF91CF910895FC01738B628B9B
:102960000896918B808B80E090E49383828380E053
:1029700090E29583848340E050E260E070E8408715
:102980005187628773879783868315861486089597
:10299000FC01A685B7858D919C9126813781AC017C
:1029A000421B530B9A015587448797838683052ED4
:1029B000000C660B770B80859185A285B385840F0B
:1029C000951FA61FB71F80879187A287B387448171
:1029D00055814217530754F462817381861B970B0C
:1029E000A109B10980879187A287B3875195419545
:1029F00051092417350774F422813381808591852C
:102A0000A285B385820F931FA11DB11D8087918779
:102A1000A287B38780E008950F931F93CF93DF932E
:102A2000FC014581568167817085C785D089888181
:102A30009981AA81BB81480F591F6A1F7B1F218979
:102A400032898481A82FB0E0AA0FBB1FAA0FBB1F39
:102A5000A20FB31F0D911D912D913C911397401B17
:102A6000510B620B730B45835683678370874881D4
:102A700059816A817B814D935D936D937C9313970C
:102A800084818F5F84839281891301C01482858140
:102A90009681A781B085038004C0B695A7959795C8
:102AA00087950A94D2F723853485822393239287CE
:102AB000818780E0DF91CF911F910F9108950F934F
:102AC0001F93CF938C01FC01548B438B09969687FF
:102AD0008587728B618B8FEF9FE394878387C0E03C
:102AE00003C0C80199DFCF5FF8018281C817C8F31E
:102AF000CF911F910F910895FC018DE798E191838B
:102B0000808381E49DE29383828380E29BE39583CB
:102B1000848308952F923F924F925F926F927F929B
:102B20008F929F92AF92BF92CF92DF92EF92FF92DD
:102B30001F93CF93DF9300D000D000D0CDB7DEB786
:102B40001C01CB01A0E0B0E07727662728E631E042
:102B500040E050E00E941F2069012130304820F001
:102B6000E0E8DE1A11E001C010E0F1E0CF16F0E479
:102B7000DF0630F080E090E89C012C193D096901E6
:102B800031E0C31630E1D30690F4F101A081B181A8
:102B900096010E945620DC01CB01072E7CE0B59502
:102BA000A795979587957A95D1F7702DA0C0C60106
:102BB000815090418F3F9F4108F062C0E12CF12C81
:102BC0002601370120E2521A6108710846015701B7
:102BD00030E3931AA108B108A3019201C501B40121
:102BE0000E94FC1F9C01552737FD5095452FF10190
:102BF000A081B1810E94662069837A838B839C8344
:102C0000F0E1DF1AE108F108A5019401C701B6015E
:102C10000E94FC1F9B01AC01012E1FE055954795BA
:102C2000379527951A95D1F7102DF101A281B3811F
:102C30000E94662089809A80AB80BC80861A970AA1
:102C4000A80AB90AA3019201C701B6010E94FC1F9C
:102C50009C01552737FD5095452FA481B5810E94D1
:102C60006620860E971EA81EB91E072E79E0B59421
:102C7000A794979487947A95D1F7702DC40137C0A3
:102C8000E12CF12CC701B6017054810991099B0117
:102C9000AC010E94FC1F9B01AC01012E1EE055956A
:102CA0004795379527951A95D1F7102DF101A481F5
:102CB000B5810E9466204B015C01A701960130534B
:102CC00041095109C701B6017055810991090E9456
:102CD000FC1F861A970AA80AB90A072E7AE0B5944B
:102CE000A794979487947A95D1F7702DC4011130E9
:102CF00019F491958195910926960FB6F894DEBF47
:102D00000FBECDBFDF91CF911F91FF90EF90DF906D
:102D1000CF90BF90AF909F908F907F906F905F907B
:102D20004F903F902F900895CF93C82F8A3011F481
:102D30008DE0FADF5D9BFECFCCB980E090E0CF91D3
:102D400008955F9BFECF8CB190E0089510929000A3
:102D500019B88AB188618AB9E5E9F0E080818660B6
:102D60008083ECE2F3E08BEF91E0938382839183A5
:102D7000808308955058BB27AA270ED0E5C0D6D02F
:102D800030F0DBD020F031F49F3F11F41EF4CBC0C3
:102D90000EF4E095E7FBC1C0E92FE7D080F3BA1746
:102DA000620773078407950718F071F49EF5FFC05A
:102DB0000EF4E0950B2EBA2FA02D0B01B901900156
:102DC0000C01CA01A0011124FF27591B99F0593F9A
:102DD00050F4503E68F11A16F040A22F232F342FE2
:102DE0004427585FF3CF469537952795A795F04030
:102DF0005395C9F77EF41F16BA0B620B730B840B45
:102E0000BAF09150A1F0FF0FBB1F661F771F881FFC
:102E1000C2F70EC0BA0F621F731F841F48F4879554
:102E200077956795B795F7959E3F08F0B3CF939543
:102E3000880F08F09927EE0F97958795089504D08D
:102E40006894B111B5C0089598D088F09F5790F05C
:102E5000B92F9927B751A0F0D1F0660F771F881FBF
:102E6000991F1AF0BA95C9F712C0B13081F09FD0FE
:102E7000B1E008959CC0672F782F8827B85F39F09C
:102E8000B93FCCF3869577956795B395D9F73EF41E
:102E900090958095709561957F4F8F4F9F4F0895C6
:102EA000E89409C097FB3EF49095809570956195E4
:102EB0007F4F8F4F9F4F9923A9F0F92F96E9BB279A
:102EC0009395F695879577956795B795F111F8CF16
:102ED000FAF4BB0F11F460FF1BC06F5F7F4F8F4F81
:102EE0009F4F16C0882311F096E911C0772321F077
:102EF0009EE8872F762F05C0662371F096E8862F0F
:102F000070E060E02AF09A95660F771F881FDAF765
:102F1000880F9695879597F9089597F99F6780E8A8
:102F200070E060E008959FEF80EC089500240A941B
:102F30001616170618060906089500240A94121694
:102F40001306140605060895092E0394000C11F4C7
:102F5000882352F0BB0F40F4BF2B11F460FF04C074
:102F60006F5F7F4F8F4F9F4F089557FD9058440FCD
:102F7000551F59F05F3F71F04795880F97FB991FD8
:102F800061F09F3F79F08795089512161306140695
:102F9000551FF2CF4695F1DF08C016161706180622
:102FA000991FF1CF86957105610508940895E894FD
:102FB000BB2766277727CB0197F908950BD0C4CF9D
:102FC000B5DF28F0BADF18F0952309F0A6CFABCF14
:102FD0001124EECFCADFA0F3959FD1F3950F50E0F7
:102FE000551F629FF001729FBB27F00DB11D639FBB
:102FF000AA27F00DB11DAA1F649F6627B00DA11D61
:10300000661F829F2227B00DA11D621F739FB00D06
:10301000A11D621F839FA00D611D221F749F332776
:10302000A00D611D231F849F600D211D822F762F0F
:103030006A2F11249F5750408AF0E1F088234AF00C
:10304000EE0FFF1FBB1F661F771F881F9150504058
:10305000A9F79E3F510570F060CFAACF5F3FECF318
:10306000983EDCF3869577956795B795F795E79544
:103070009F5FC1F7FE2B880F911D9695879597F955
:10308000089520FD09C0FC0123FD05C022FF02C0F8
:103090007383628351834083089544FD17C046FDC6
:1030A00017C0AB01BC01DA01FB01AA0FBB1FEE1F69
:1030B000FF1F1094D1F74A0F5B1F6E1F7F1FCB01BC
:1030C000BA01660F771F881F991F09C033E001C03E
:1030D00034E0660F771F881F991F3150D1F7620FB8
:1030E000711D811D911D08950F931F93CF93DF9341
:1030F0008C01C8010E947521EC0197FD08C00E9457
:103100004421892BB1F7B801CE010E943222CE01B1
:10311000DF91CF911F910F9108958F929F92AF925F
:10312000BF92CF92DF92EF92FF920F931F93CF93B4
:10313000DF937C018B016A01D22F0E9475219C01D3
:1031400033272B32310521F02D32310559F4D06867
:103150000150110911F480E069C0C7010E94752176
:1031600097FDF9CFCD2FCD7F2D2F207319F580330B
:1031700009F5580181E0A81AB10809F444C0C70153
:103180000E94752197FD3FC09C012F7D3327283574
:10319000310551F4C26402501109A9F1C7010E941E
:1031A000752197FF07C02FC0D6FF02C0C26001C0C3
:1031B000C2618501812C912C540120ED280F28300B
:1031C00080F0C4FF04C0B7010E94322219C02A3027
:1031D00040F0C6FFF8CF2F7D3FEE320F363098F724
:1031E00027504C2FC501B40158DF4B015C01C26070
:1031F0000150110959F0C7010E94752197FFDDCFD9
:10320000C1FD04C0A8CF812C912C5401C7FF08C078
:10321000B094A09490948094811C911CA11CB11C2A
:103220002C2FB501A401C6012CDF81E0DF91CF91E5
:103230001F910F91FF90EF90DF90CF90BF90AF90D4
:103240009F908F9008954F925F926F927F928F928E
:103250009F92AF92BF92CF92DF92EF92FF920F9325
:103260001F93CF93DF93CDB7DEB7A0970FB6F89437
:10327000DEBF0FBECDBF5C014B017A018E010F5F37
:103280001F4F680180E2F80111928A95E9F7F50174
:10329000538040E050E0612C90E0712CA1E0B0E060
:1032A000F90153FC859153FE81918F01482E9F01B6
:1032B000811103C080E090E095C08E3519F441156E
:1032C000510551F1672D70E0641775073CF48D3599
:1032D00061F18D3219F4992311F103C0992309F496
:1032E0006CC0842D869586958695F601E80FF11DB4
:1032F000842D87708D0102C0000F111F8A95E2F79F
:10330000C8019081892B8083641459F0461410F40D
:103310004394E7CF4A94E5CF7724739403C091E0B8
:1033200001C090E04F5F5F4FBBCF992319F08E81B2
:1033300080628E83711003C07724739419C0F601E4
:103340009E012F5D3F4F8081809581932E173F070F
:10335000D1F7F2CFE114F10431F0F7018083B70126
:103360006F5F7F4F7B0171E0871A9108712CF1F03C
:10337000C501BBD797FD18C0FC01FF2723E0F595D9
:10338000E7952A95E1F7EC0DFD1D208130E0AC01B9
:103390004770552702C0359527954A95E2F720FDDD
:1033A000D9CFB5010E943222711084CFE114F1040B
:1033B00011F0F7011082C80115C0682F6695669557
:1033C0006695F601E60FF11D682F67708D0102C04A
:1033D000000F111F6A95E2F7B8017081672B6083B7
:1033E000682EA0CFA0960FB6F894DEBF0FBECDBF5B
:1033F000DF91CF911F910F91FF90EF90DF90CF90D1
:10340000BF90AF909F908F907F906F905F904F9004
:1034100008952F923F924F925F926F927F929F9268
:10342000AF92BF92CF92DF92EF92FF920F931F93D2
:10343000CF93DF936C018B011A0157D7EC019927C9
:103440008B32910529F08D9779F430E8932E01C0E5
:10345000912C0150110911F480E0FEC0C60145D73E
:10346000EC0197FF02C0F8CF912CCE0115D7893619
:10347000910531F08E36910581F5C0EAD1E002C0A8
:10348000C3EAD1E02196FE013197B490BB20B1F0A0
:103490000150110979F0C60128D77C0197FD0AC0B7
:1034A000FBD69927EB2DF0E08E179F0759F3B60155
:1034B000C701D8D7C65AD14079F603C0C35AD14004
:1034C00029F080E090E0A0E8BFE704C080E090E051
:1034D000A0ECBFE7BC01CD01AFC0412C512C3201A3
:1034E000E12CF12C2C2F20532A3008F5E92DE26035
:1034F000BE2E892D887092FE06C081111FC0FFEF7D
:10350000EF1AFF0A1BC0882319F081E0E81AF108BE
:1035100040E2C301B201C1DD2B013C0168397949A8
:103520008949994158F0F92DF660BF2E07C02E3F0A
:1035300081F493FC0EC0292D2860B22E0150110990
:1035400039F0C601D2D6EC019B2C97FFCBCF01C03E
:103550009B2C91FE81CFCE018F7D992785349105DB
:1035600009F03EC0580181E0A81AB10809F474CFEF
:10357000C601BBD6EC0197FD6FCF99278B32910521
:1035800029F08D9761F4E92DE0619E2E5801F2E05B
:10359000AF1AB10809F460CFC601A7D6EC01CE017D
:1035A000C0970A9708F058CF8501A12CB12CB5011E
:1035B000BB0C880B990B2C2F205340E26EDD5B0176
:1035C0000150110931F0C60190D6EC01C0970A975D
:1035D00070F394FE03C0B194A194B108EA0CFB1CF3
:1035E000012B29F0D7FD03C0B601CE013BD7C301A3
:1035F000B20156DCF7FE06C0F194E194F108CFEB7E
:10360000D1E002C0C7EDD1E06E0128E1C21AD108B5
:1036100000E210E0E016F10648F0FE012591359138
:1036200045915491CBDCE01AF10AF4CF249716951A
:103630000795CC16DD0671F797FE05C0DC01CB01BE
:10364000B058BC01CD012114310429F0F10160838F
:1036500071838283938381E0DF91CF911F910F91DA
:10366000FF90EF90DF90CF90BF90AF909F907F90B2
:103670006F905F904F903F902F9008956F927F9240
:103680008F929F92AF92BF92CF92DF92EF92FF9272
:103690000F931F93CF93DF935C01EB014A01FC0171
:1036A00017821682612CF5010381FE0103FD8591CD
:1036B00003FF8191182FEF01882309F400C190E0E6
:1036C000E3D5892B19F0C5010FDDEDCF153241F49B
:1036D000FE0103FD159103FF1191EF01153271F405
:1036E000C50103D697FDE9C0412F50E09C01332767
:1036F00024173507C1F2B501B5D6E1C01A3241F43D
:1037000003FD159103FF1191EF017724739401C01C
:10371000712CE12CF12C20ED210F2A3080F4F72DB3
:10372000F2607F2EB70180E090E040E2B6DC7B01E2
:10373000FE0103FD159103FF1191EF01ECCF71FE26
:1037400004C0E114F10421F4BAC0EE24EA94FE2C82
:10375000183619F01C3661F014C0FE0103FD1591F6
:1037600003FF1191EF01183661F4872D8860782EE0
:10377000972D9460792EFE0103FD159103FF1191A1
:10378000EF01112309F49BC0612F70E08EE891E0F6
:103790008BD5892B09F493C070FC07C0F401C0805D
:1037A000D180C40102964C0102C0C12CD12C1E361E
:1037B00049F4F5014681578160E070E0272DC6018C
:1037C00060DC71CF1336B1F471FC03C0EE24E394D6
:1037D000F12CC5018AD597FD70C0C114D10429F020
:1037E000F6018083C60101966C0191E0E91AF108A7
:1037F00081F75FC01B3551F49E01A601B701C501D9
:1038000022DDEC01892B09F054C04EC0C5016CDCEF
:1038100097FD53C01F36C9F140F4143691F11936A3
:10382000B9F1183509F03AC028C01337A9F018F4D7
:10383000103719F133C0153721F11837F1F02EC0C8
:10384000C114D10429F0F6010083C60101966C0170
:1038500091E0E91AF10859F0C50147D58C0197FDAF
:1038600006C012D5892B61F3B501C801FBD5C1147F
:10387000D104F9F0F60110821CC0F72DF0647F2E00
:1038800007C0872D8062782E03C0972D9061792E16
:10389000272DA601B701C50140DC04C0A601B70170
:1038A000C501B7DD811105C0F5018381807329F45D
:1038B00006C070FCF8CE6394F6CE662019F0862D13
:1038C00090E002C08FEF9FEFDF91CF911F910F919A
:1038D000FF90EF90DF90CF90BF90AF909F908F9030
:1038E0007F906F9008952F923F924F925F926F92C8
:1038F0007F928F929F92AF92BF92CF92DF92EF9280
:10390000FF920F931F93CF93DF93CDB7DEB76097EE
:103910000FB6F894DEBF0FBECDBF7C011B016A015C
:10392000FC0117821682838181FF2AC39E012F5FCB
:103930003F4F3901F7019381F10193FD859193FF89
:1039400081911F01882309F417C3853239F493FD4F
:10395000859193FF81911F01853231F4B70190E089
:1039600002D556016501E6CF10E0512C912CFFE104
:10397000F915D8F08B3279F038F4803279F083324F
:10398000A1F4F92DF0612EC08D3261F0803369F41D
:10399000292D21602DC0392D3260932E892D846010
:1039A000982E2AC0E92DE86015C097FC2DC020EDA7
:1039B000280F2A3088F496FE06C03AE0139F200DA7
:1039C0001124122F19C08AE0589E200D1124522E66
:1039D000E92DE0629E2E10C08E3231F496FCCCC2EE
:1039E000F92DF0649F2E08C08C3621F4292D206813
:1039F000922E02C0883641F4F10193FD859193FF28
:103A000081911F018111B3CF9BEB980F933020F46C
:103A1000992D9061805E07C09BE9980F933008F064
:103A200059C1992D9F7E96FF16E09F73992E85367A
:103A300019F49064992E08C0863621F4392F306825
:103A4000932E02C01111115097FE07C01C3350F481
:103A500044244394410E27E00BC0183038F027E08F
:103A600017E005C027E09CE3492E02C0212F412C1E
:103A7000560184E0A80EB11CF6016081718182813B
:103A80009381042DA30128D36C01F981FC87F0FFF9
:103A900002C0F3FF06C091FC06C092FE06C000E221
:103AA00005C00DE203C00BE201C000E08C858C7004
:103AB00019F0011143C280C297FE10C04C0CFC8566
:103AC000F4FF04C08A81813309F44A94141474F514
:103AD00028E0241578F588E0482E2CC096FC2AC0F2
:103AE000812F90E08C159D059CF03CEFC3163FEFB5
:103AF000D30674F0892D8068982E0AC0E2E0F0E0C9
:103B0000EC0FFD1FE10FF11D8081803319F411507E
:103B10001111F4CF97FE0EC044244394410E812F1F
:103B200090E0C816D9062CF41C1904C04424439410
:103B300001C010E097FE06C01C141D0434F4C60139
:103B4000019605C085E090E002C081E090E001119F
:103B50000196112331F0212F30E02F5F3F4F820F6C
:103B6000931F252D30E08217930714F4581A01C0D3
:103B7000512C892D897041F4552031F0B70180E234
:103B800090E0F1D35A94F8CF002321F0B701802FB1
:103B900090E0E9D393FC08C0552031F0B70180E3F1
:103BA00090E0E1D35A94F8CF97FE4AC04601D7FE81
:103BB00002C0812C912CC60188199909F301E80FE4
:103BC000F91FFE87ED87960124193109388B2F875D
:103BD000012F10E01195019511093FEF831693060F
:103BE00021F4B7018EE290E0BED3C814D9044CF0A2
:103BF0008F8598898815990524F4ED85FE85818146
:103C000001C080E3F1E08F1A91082D853E852F5F7A
:103C10003F4F3E872D878016910624F0B70190E034
:103C2000A2D3DBCFC814D90441F49A81963320F48F
:103C3000953319F43C8534FF81E3B70190E048C027
:103C40008A81813319F09C859F7E9C87B70190E023
:103C50008AD3111105C094FC16C085E690E015C00A
:103C6000B7018EE290E07FD31E5F82E001E0080F93
:103C7000F301E80FF11D8081B70190E074D3802F2C
:103C80000113F4CFE8CF85E490E0B7016CD3D7FC03
:103C900006C0C114D10441F4EC85E4FF05C0D19401
:103CA000C194D1088DE201C08BE2B70190E05BD3F3
:103CB00080E32AE0C216D1042CF08F5FFAE0CF1A1D
:103CC000D108F7CFB70190E04ED3B701C601C09637
:103CD0004AD349C1833631F0833779F0833509F00F
:103CE00052C01FC0560132E0A30EB11CF601808104
:103CF000898301E010E0630111C05601F2E0AF0ECC
:103D0000B11CF601C080D18096FE03C0612F70E027
:103D100002C06FEF7FEFC601DDD28C01F92DFF7776
:103D200013C0560122E0A20EB11CF601C080D18062
:103D300096FE03C0612F70E002C06FEF7FEFC601F7
:103D4000BED28C01F92DF0689F2EF3FD18C0852D91
:103D500090E00817190798F4B70180E290E003D3C8
:103D60005A94F5CFF60197FC859197FE81916F01EA
:103D7000B70190E0F8D251105A9401501109011581
:103D8000110581F7F0C0843611F0893659F55601D6
:103D900097FE09C024E0A20EB11CF601608171817A
:103DA000828193810AC0F2E0AF0EB11CF6016081FE
:103DB0007181072E000C880B990BF92DFF769F2E31
:103DC00097FF09C090958095709561957F4F8F4FB3
:103DD0009F4FF0689F2E2AE030E0A3015CD3C82EED
:103DE000C6183EC0092D853721F40F7E2AE030E049
:103DF0001DC0097F8F3691F018F4883559F0BCC08A
:103E0000803719F0883711F0B7C0006104FF09C08E
:103E1000046007C094FE08C0066006C028E030E0D9
:103E200005C020E130E002C020E132E0560107FF8A
:103E300009C084E0A80EB11CF60160817181828105
:103E4000938108C0F2E0AF0EB11CF6016081718170
:103E500080E090E0A3011FD3C82EC6180F77902EE4
:103E600096FE0BC0092D0E7FC11650F494FE0AC0B9
:103E700092FC08C0092D0E7E05C0DC2C092D03C064
:103E8000DC2C01C0D12E04FF0DC0FE01EC0DF11D94
:103E90008081803311F4097E09C002FF06C0D394EB
:103EA000D39404C0802F867809F0D39403FD10C00A
:103EB00000FF06C01C2DD51478F4150D1D190CC07B
:103EC000D51450F4B70180E290E04DD2D394F8CFEE
:103ED000D51410F45D1801C0512C04FF0FC0B701B8
:103EE00080E390E040D202FF16C001FD03C088E7E6
:103EF00090E002C088E590E0B7010CC0802F867882
:103F000051F001FF02C08BE201C080E207FD8DE2AB
:103F1000B70190E028D2C11630F4B70180E390E0F9
:103F200022D21150F8CFCA94F301EC0DF11D80811B
:103F3000B70190E018D2C110F6CF15C0F4E0F51526
:103F400050F584E0581A93FE1EC0011125C02C853F
:103F500023FF27C00CE810E0392D3071932EF801B3
:103F60008491811121C0552009F4FCCCB70180E275
:103F700090E0F9D15A94F7CFF7018681978123C059
:103F80008FEF9FEF20C0B70180E290E0ECD15A9410
:103F90005110F9CFDACF512CB701802F90E0E3D147
:103FA000D6CF00E910E0D8CF91108052B70190E051
:103FB000DAD10F5F1F4FD3CF23E0251510F483E034
:103FC000C1CF512CC4CF60960FB6F894DEBF0FBEA0
:103FD000CDBFDF91CF911F910F91FF90EF90DF90B8
:103FE000CF90BF90AF909F908F907F906F905F9099
:103FF0004F903F902F900895DB018F939F935CD05B
:10400000BF91AF91A29F800D911DA39F900DB29F74
:10401000900D11240895AA1BBB1B51E107C0AA1FD4
:10402000BB1FA617B70710F0A61BB70B881F991F59
:104030005A95A9F780959095BC01CD010895A1E20C
:104040001A2EAA1BBB1BFD010DC0AA1FBB1FEE1F12
:10405000FF1FA217B307E407F50720F0A21BB30B5D
:10406000E40BF50B661F771F881F991F1A9469F7D9
:1040700060957095809590959B01AC01BD01CF0135
:10408000089505D0332312F48A1B9B0B10C0A29F06
:10409000B001B39FC001A39F700D811D1124911D1C
:1040A000B29F700D811D1124911D0895F0DFB7FF9F
:1040B0000895821B930B0895EADFA59F900DB49F8E
:1040C000900DA49F800D911D11240895B7FFF4CF8A
:1040D000F3DF821B930B0895283008F027E0332785
:1040E000DA01990F311D87FD916000966105710518
:1040F00039F432602E5F3D9330E32A95E1F708955D
:104100009F3F30F080387105610509F03C5F3C5FEE
:104110003D93913008F08068911DDF93CF931F93FA
:104120000F93FF92EF92192F987F9695E92F96950E
:104130009695E90FFF27E251FF4F99273327EE2489
:10414000FF24A701E70105900894079428F4360F8F
:10415000E71EF81E491F511D660F771F881F991F04
:104160000694A1F70590079428F4E70EF81E491F5E
:10417000561FC11D770F881F991F661F0694A1F750
:104180000590079428F4F80E491F561FC71FD11D2C
:10419000880F991F661F771F0694A1F70590079453
:1041A00020F4490F561FC71FD81F990F661F771F8E
:1041B000881F0694A9F784911095177041F0D69541
:1041C000C79557954795F794E7941A95C1F7E4E991
:1041D000F0E0689415901591359165919591059051
:1041E0007FE27395E118F10A430B560BC90BD00916
:1041F000C0F7E10CF11E431F561FC91FD01D7EF4EE
:10420000703311F48A95E6CFE894015030F0080F2E
:104210000AF40027021708F4202F2395022F7A337F
:1042200028F079E37D932A95E9F710C07D932A95CC
:1042300089F6069497956795379517951794E11821
:10424000F10A430B560BC90BD00998F023957E91C8
:1042500073957A3308F070E37C932013B8F77E915E
:1042600070617D9330F0839571E37D9370E32A95BF
:10427000E1F71124EF90FF900F911F91CF91DF9103
:10428000992787FD90950895911163C1803219F0A7
:1042900089508550D0F708959111089581548A511D
:1042A00008F4805E855A0895FC010590061621F0F9
:1042B0000020D9F7C00108953197CF010895FC017E
:1042C0000590615070400110D8F7809590958E0F41
:1042D0009F1F0895FC016150704001900110D8F7B4
:1042E000809590958E0F9F1F0895CF93DF93EC01DB
:1042F0002B8120FF33C026FF0AC02F7B2B838E81AA
:104300009F8101969F838E838A8190E029C022FF3E
:104310000FC0E881F9818081082E000C990B00976D
:1043200019F420622B831AC03196F983E8830EC0FA
:10433000EA85FB85099597FF09C02B81019611F04D
:1043400080E201C080E1822B8B8308C02E813F81F7
:104350002F5F3F4F3F832E83992702C08FEF9FEF40
:10436000DF91CF9108950F931F93CF93DF93FB01BC
:10437000238121FD03C08FEF9FEF2CC022FF16C0C9
:1043800046815781248135814217530744F4A08127
:10439000B1819D012F5F3F4F318320838C93268114
:1043A00037812F5F3F4F3783268314C08B01EC0189
:1043B000FB010084F185E02D0995892BE1F6D801F8
:1043C00016968D919C911797019617969C938E93B4
:1043D0001697CE01DF91CF911F910F910895CF9342
:1043E000DF93CDB7DEB7AE014B5F5F4FFA0161914E
:1043F0007191AF0180912E0390912F0374DADF91B8
:10440000CF9108950F931F93CF93DF93E0912E03E5
:10441000F0912F03238121FF1BC08C01D0E0C0E06D
:10442000F80181918F0160912E0370912F03DB01C0
:104430001896ED91FC911997882331F00995892BF5
:1044400079F3DFEFCFEFECCF8AE00995892B19F0F4
:104450008FEF9FEF02C08D2F9C2FDF91CF911F9187
:104460000F910895FB01238120FF12C026FD10C08B
:104470008F3F3FEF930761F082832F7D206423837A
:104480002681378121503109378326839927089562
:104490008FEF9FEF0895FA01AA27283051F12031BC
:1044A00081F1E8946F936E7F6E5F7F4F8F4F9F4FC8
:1044B000AF4FB1E03ED0B4E03CD0670F781F891F0A
:1044C0009A1FA11D680F791F8A1F911DA11D6A0FD8
:1044D000711D811D911DA11D20D009F468943F918B
:1044E0002AE0269F11243019305D3193DEF6CF018A
:1044F0000895462F4770405D4193B3E00FD0C9F750
:10450000F6CF462F4F70405D4A3318F0495D31FDBC
:104510004052419302D0A9F7EACFB4E0A69597950F
:10452000879577956795BA95C9F7009761057105E5
:1045300008959B01AC010A2E06945795479537952F
:104540002795BA95C9F7620F731F841F951FA01D89
:0C4550000895992788270895F894FFCF5C
:10455C003A02000000004D025F028203D8026202A0
:10456C00040200000000140223023A0379026302E1
:10457C00CD030000D603D8030000002E05FD04B6C1
:10458C0004000088044A041A04DA0364053C05009C
:10459C00B400280020000A00020A000000000000FD
:1045AC000000801600008FC2753F000076030000EB
:1045BC000000760376030000000076030000000084
:1045CC007603760300000000760376030000760382
:1045DC00BC02060090E210003700090090010800B0
:1045EC0000000000000000000000000000000000BF
:1045FC000000000A000A0000000A0A000000000087
:10460C0000000A900190010000000000000A000068
:10461C00000400000000000000000000000000008A
:10462C00000000010000000000000000000000007D
:10463C000000000000000001040200000000000067
:10464C00000000000000000000000000000003005B
:10465C000000009416A11600002D2D2D2D2D2D2DB2
:10466C002D2D2D2020766F6C746167653D252E34C1
:10467C006620202D2D2D2D2D2D2D2D2D2D20200A7C
:10468C000A002533642C2533642C2533642C002537
:10469C0033642C2533642C2533640A000A66696E56
:1046AC00697368000A6F7665722063757272656E45
:0246BC00740088
:00000001FF
